:020000040800F2
:1000000000500020DD100008711000087310000877
:100010007510000877100008791000080000000033
:100020000000000000000000000000007B1000083D
:100030007D100008000000007F10000881100008FB
:1000400025110008251100082511000825110008B8
:1000500025110008251100082511000825110008A8
:100060002511000825110008251100082511000898
:100070002511000825110008251100082511000888
:100080002511000825110008251100082511000878
:100090002511000825110008251100082511000868
:1000A00025110008851000082511000825110008F9
:1000B0002511000825110008251100082511000848
:1000C0002511000825110008251100082511000838
:1000D0002511000825110008251100082511000828
:1000E0002511000825110008251100080000000056
:1000F0000000000000000000000000000000000000
:0C01000000000000000000005FF808F1A3
:10010C0010B5054C237833B9044B13B10448AFF345
:10011C0000800123237010BD0C00002000000000A3
:10012C008011000808B5034B1BB103490348AFF31A
:10013C00008008BD000000001000002080110008A5
:10014C0038B50E4B054618784FF47A73B3FBF0F3C1
:10015C000B4A1068B0FBF3F000F08CF8044658B969
:10016C000F2D09D8024629464FF0FF3000F042F817
:10017C00044B20461D6038BD012038BD0000002016
:10018C000800002004000020074A08B5136803206B
:10019C0043F01003136000F01BF80020FFF7D0FFB2
:1001AC0000F020FF002008BD00200240034A044B51
:1001BC0011681B780B441360704700BF3800002097
:1001CC0000000020014B1868704700BF3800002069
:1001DC00074A0002D36800F4E06023F4E0631B04D8
:1001EC001B0C43F0BF6343F400330343D3607047ED
:1001FC0000ED00E0174B30B5DC68C4F30224C4F109
:10020C000703251D042B28BF0423062D4FF00105E1
:10021C0098BF002405FA03F303F1FF3388BF033CB6
:10022C001940A14005FA04F4013C2240002842EA9E
:10023C0001024FEA0212AFBF00F16040064B00F022
:10024C000F00D2B2A5BFD2B200F561401A5480F8AB
:10025C00002330BD00ED00E014ED00E00123420965
:10026C0000F01F0003FA00F0014B43F82200704726
:10027C0000E100E00138B0F1807F0AD2F021064B9A
:10028C00064A586082F823100020072298601A60F2
:10029C0070470120704700BF10E000E000ED00E067
:1002AC002DE9F74F00221646654BDFF8A4E1DFF885
:1002BC00A4C14FF001080C6808FA06F808EA040417
:1002CC00A0457FD14D68122D00F0AF8000F28880E0
:1002DC00022D00F0A7807CD8002D00F08E80012D1F
:1002EC0000F09E804FF00F09FF2C93BF824606F161
:1002FC008045083DD0F800B092BFB500D0F804B0EE
:10030C00AD0009FA05F82BEA080802FA05F588BFD2
:10031C0000F1040A48EA0505CAF80050D1F804A017
:10032C001AF0805F4ED0474D464FAD6926F003085A
:10033C0045F00105BD61BD6908F1804805F0010576
:10034C00019508F5803806F0030B019D4FEA8B0BE5
:10035C00D8F8085009FA0BF925EA09093A4DA842D0
:10036C0068D005F58065A84266D005F58065A84281
:10037C0064D005F58065A8420CBF0325042505FA59
:10038C000BF545EA0905C8F808501D681AF4803FBA
:10039C0014BF2543A5431D605D681AF4003F14BFCC
:1003AC002543A5435D609D681AF4801F14BF254347
:1003BC00A5439D60DD681AF4001F14BF2C4325EA89
:1003CC000404DC600136102E7FF473AF03B0BDE87B
:1003DC00F08F032D22D0112D84D1CA68043281E70D
:1003EC001A4FBD4209D012D8DFF86C904D4504D09D
:1003FC0009F580394D457FF475AF8A68C2B1012A81
:10040C000CBFC0F81080C0F8148008226AE775454C
:10041C00F3D06545F1D0DFF84490EBE7002261E7BB
:10042C00CA685FE7CA6808325CE7CA680C3259E7E9
:10043C00042257E70025A2E70125A0E702259EE745
:10044C00000401400010024000080140000021108F
:10045C0000003110000032100000111000002210BA
:10046C008368194214BF0120002070470AB1016152
:10047C0070470904FBE7C3685940C160704700002E
:10048C0003682DE9F341DB07054610D42B689F0761
:10049C005ED42B68190700F195802B685A0700F180
:1004AC00BF80EA69002A40F02D81002014E0904CB6
:1004BC00636803F00C03042B07D0636803F00C0390
:1004CC00082B0CD16368DE0309D523689C03DDD5AA
:1004DC006B68002BDAD1012002B0BDE8F0816B68AB
:1004EC00B3F5803F10D1236843F480332360FFF7CA
:1004FC0069FE064623689803C8D4FFF763FE801B89
:10050C006428F7D90320E7E79BB9236823F48033E9
:10051C002360236823F480232360FFF753FE0646F1
:10052C0023689903B2D5FFF74DFE801B6428F7D9D9
:10053C00E8E7B3F5A02F236803D143F480232360AD
:10054C00D1E723F480332360236823F48023CDE7A1
:10055C00674C636813F00C0F07D0636803F00C034F
:10056C00082B10D16368DA030DD423689B0702D5DE
:10057C002B69012BAFD123686A6923F0F80343EA96
:10058C00C203236085E72A695A4B6AB101221A60BB
:10059C00FFF718FE064623689F07ECD4FFF712FE00
:1005AC00801B0228F7D9ADE71A60FFF70BFE064651
:1005BC00236898077FF56DAFFFF704FE801B0228B8
:1005CC00F6D99FE7AA694A4C4B4BDAB101221A6063
:1005DC00FFF7F8FD0646636A9B070DD54FF4FA52F8
:1005EC00464B1B68B3FBF2F3019300BF019B5A1EF1
:1005FC000192002BF9D150E7FFF7E4FD801B022894
:10060C00E9D97FE71A60FFF7DDFD0646636A9F07AD
:10061C007FF543AFFFF7D6FD801B0228F6D971E7B3
:10062C00334CE369D80024D40127E36943F08053A9
:10063C00E361E36903F080530093009B304E336811
:10064C00D90518D5EB68012B26D1236A43F0010399
:10065C002362FFF7B7FD41F288368046236A9B0779
:10066C003FD5002F3FF41DAFE36923F08053E361C6
:10067C0017E70027E2E7336843F480733360FFF732
:10068C00A1FD80463368DA05DCD4FFF79BFDA0EBB7
:10069C0008006428F6D935E7ABB9236A41F28838EB
:1006AC0023F001032362236A23F004032362FFF780
:1006BC0089FD0646236A9807D3D5FFF783FD801B77
:1006CC004045F7D91EE7052B236A03D143F00403F9
:1006DC002362BAE723F001032362236A23F00403A5
:1006EC00B6E7FFF76FFDA0EB0800B042B6D909E7FB
:1006FC0000100240000042428004424208000020E8
:10070C0000700040224C636803F00C03082B3FF48C
:10071C00E2AE00231F4E022A33602BD1FFF752FDAD
:10072C000746236899011FD42B6AB3F5803F05D186
:10073C006268A96822F400320A436260696A6268DE
:10074C000B4322F474121343636001233360FFF7ED
:10075C0039FD054623689A013FF5A7AEFFF732FD38
:10076C00401B0228F6D9CDE6FFF72CFDC01B022852
:10077C00D7D9C7E6FFF726FD054623689B017FF511
:10078C0094AEFFF71FFD401B0228F6D9BAE600BF56
:10079C00001002406000424230B5194B87B002ACE9
:1007AC0003F11005224618685968083303C2AB429E
:1007BC001446F7D101238DF80430022311498DF82A
:1007CC0005304B6803F00C02082A17D1C3F383429F
:1007DC0006A80244DB0312F8102C0CD54B680A480F
:1007EC00C3F34043504306AA134413F8143CB0FB24
:1007FC00F3F007B030BD05485043FAE70248F8E77C
:10080C00981100080010024000127A0000093D0007
:10081C00544A2DE9F0411368054603F007038B4257
:10082C000E462AD329688C0734D4CA0747D44D4ABC
:10083C00136803F007039E42C0F082802A684A4C7A
:10084C0012F0040F40F08780130706D563682A69FD
:10085C0023F4605343EAC2036360FFF79DFF6368B0
:10086C00424AC3F30313D35CD840414B18600020B9
:10087C00FFF766FC0020BDE8F081136823F0070346
:10088C000B431360136803F007039942CAD001208D
:10089C00BDE8F081344B11F0040F1EBF5A6842F4CE
:1008AC00E0625A60080742BF5A6842F460525A60CC
:1008BC005A68A86822F0F00202435A60B5E76A68E9
:1008CC00294C012A23681CD113F4003FDFD0636844
:1008DC0041F2883823F0030313436360FFF772FC83
:1008EC006B680746012B14D1636803F00C03042BCF
:1008FC009DD0FFF767FCC01B4045F5D90320BDE830
:10090C00F081022A02D113F0007FDFE713F0020F0F
:10091C00DCE7022B0FD1636803F00C03082B86D0A5
:10092C00FFF750FCC01B4045F5D9E7E7FFF74AFC41
:10093C00C01B4045E2D8636813F00C0FF6D176E784
:10094C00136823F0070333431360136803F00703A2
:10095C009E429CD172E76368E96823F4E0630B4321
:10096C00636071E70020024000100240A8110008EB
:10097C000800002003680020DA6842F00102DA6007
:10098C001A6842F001021A60704790F83C3070B55A
:10099C00012B4FF002031CD0012280F83D3003687C
:1009AC0080F83C209A6822F47F4222F077029A6009
:1009BC000A68402A79D019D8102A00F093800AD8F6
:1009CC00002A00F08980012380F83D30002380F854
:1009DC003C30184670BD202A00F08A80302AF2D1B3
:1009EC009A6822F0700242F0370236E0702A36D054
:1009FC001BD8502A42D0602AE5D11C6A4D6824F0DD
:100A0C001004CE681C6299691A6A21F4704122F0B4
:100A1C00A00242EA051241EA063199611A629A680B
:100A2C0022F0700242F0670217E0B2F5805F11D03D
:100A3C00B2F5005FC7D18A684D689C68C9682A43C3
:100A4C0024F47F4442EA012222439A609A6842F4D9
:100A5C00804202E09A6822F007029A60B3E78A6843
:100A6C004D689C68C9682A4324F47F4442EA0122F9
:100A7C0022439A609A6842F07702EEE74C68CE689F
:100A8C00196A1D6A21F00A0125F001051D629A6997
:100A9C00214322F0F00242EA06129A6119629A6826
:100AAC0022F0700242F05702D7E74C68CE68196A00
:100ABC001D6A21F00A0125F001051D629A69214386
:100ACC0022F0F00242EA06129A6119629A6822F048
:100ADC00700242F04702C0E79A6822F0700242F0BE
:100AEC000702BAE79A6822F0700242F01702B4E7E4
:100AFC009A6822F0700242F02702AEE77047704706
:100B0C0070477047036810B51A69044691070ED5F3
:100B1C00DA6892070BD56FF002021A6101229B6909
:100B2C0002779B0777D0FFF7EAFF00232377236830
:100B3C001A69500710D5DA6851070DD56FF0040209
:100B4C001A6102229B69227713F4407F204668D0F9
:100B5C00FFF7D5FF0023237723681A6912070FD5F7
:100B6C00DA6810070CD56FF008021A610422DB69F1
:100B7C002277990720465AD0FFF7C1FF002323772D
:100B8C0023681A69D20610D5DA68D0060DD56FF035
:100B9C0010021A610822DB69227713F4407F204689
:100BAC004BD0FFF7ACFF0023237723681A69D107DA
:100BBC0008D5DA68D20705D56FF0010220461A6114
:100BCC0000F05EF923681A69100608D5DA68110678
:100BDC0005D56FF0800220461A6100F0AAF8236850
:100BEC001A69520608D5DA68500605D56FF040022E
:100BFC0020461A61FFF785FF23681A69910622D5F2
:100C0C00DA6892061FD56FF020022046BDE810402E
:100C1C001A6100F08DB8FFF771FF2046FFF770FFE7
:100C2C0083E7FFF76BFF2046FFF76AFF92E7FFF7BA
:100C3C0065FF2046FFF764FFA0E7FFF75FFF204644
:100C4C00FFF75EFFAFE710BD1A4A036890420AD067
:100C5C00B0F1804F07D0A2F59432904203D002F548
:100C6C008062904215D14A6823F070031343114AF5
:100C7C0090420AD0B0F1804F07D0A2F59432904246
:100C8C0003D002F58062904203D1CA6823F440730A
:100C9C0013434A6923F08003134303608B68C362D8
:100CAC000B688362034B984204BF0B6903630123F7
:100CBC0043617047002C014010B50446A0B190F878
:100CCC003D3003F0FF021BB980F83C2000F0ACF97A
:100CDC000223206884F83D30211DFFF7B5FF012366
:100CEC00002084F83D3010BD012010BD90F83C3040
:100CFC0010B5012B4FF0020318D080F83D3003687B
:100D0C000C685A68496822F070025A605A6822438B
:100D1C005A609A6822F080029A609A680A439A6034
:100D2C00012380F83D30002380F83C30184610BD7C
:100D3C007047704710B50A4A1378092B0ED8013347
:100D4C001370084A0124117807484B1CDBB2092B9D
:100D5C00137088BF0023445488BF137010BD00BFAC
:100D6C00340000203200002028000020024B1878AC
:100D7C00003018BF0120704734000020084A137857
:100D8C0063B1013B1370074A07491378C85C013300
:100D9C00DBB2092B88BF002313707047FF2070470C
:100DAC003400002033000020280000200122054BD5
:100DBC001A700023044A1370044A1370044A137007
:100DCC00704700BF370000203400002032000020A4
:100DDC003300002010B5264C2378013B032B18D888
:100DEC00DFE803F0020A1A314FF480512148FFF773
:100DFC0037FB70B902230BE04FF480511D48FFF70D
:100E0C002FFB38B9FFF796FF0A221B4B1A700323EE
:100E1C00237010BD0123FBE74FF480511548FFF7F9
:100E2C001FFB0028E6D1144A1378002BF1D0013BAC
:100E3C00DBB21370002BECD1FFF77CFF02220F4BBF
:100E4C001A700423E4E74FF480510A48FFF708FBBB
:100E5C000028CFD1094C2378002BDAD0013B23702A
:100E6C00054B1B78002BD4D1FFF764FFC2E700BF02
:100E7C003700002000100140360000203500002013
:100E8C00064B1A6801321A6064221968B1FBF2F33E
:100E9C0002FB13130BB9FFF79DBF70473C000020FA
:100EAC0000B591B02822002106A800F05BF91422AD
:100EBC00002101A800F056F90223069301230A939E
:100ECC00102306A80B93FFF7DBFA00210F2301A8D0
:100EDC0001930291039104910591FFF799FC11B0D4
:100EEC005DF804FB00B500254FF480568BB0FFF77E
:100EFC004BF9FFF7D5FF1022002106A800F032F9BC
:100F0C00334B40219A69334842F004029A619A6942
:100F1C00314C02F004020192019A9A6942F01002DB
:100F2C009A619A6902F010020292029A9A6942F04E
:100F3C0008029A619B69002203F008030393039B48
:100F4C00FFF794FA06A92548069607950895FFF72A
:100F5C00A7F94023069301230793022306A91D48F2
:100F6C0009930895FFF79CF92946102206A800F072
:100F7C00F9F807231A4A204684E80C0040F2E733BC
:100F8C00E3608023A560A3612561656104950595E7
:100F9C00FFF792FE06A920460696FFF7F6FC04A979
:100FAC00204604950595FFF7A1FE2046FFF7E2FCCD
:100FBC00FFF7FCFE074CFFF7D9FE0028FBD0FFF72C
:100FCC00DDFE0128F7D140212046FFF754FAF2E765
:100FDC0000100240000C01404000002000100140B5
:100FEC00002C01400E4B82B09A6942F001029A61CA
:100FFC009A6902F001020092009ADA6942F080527A
:10100C00DA61DB69074A03F080530193019B536853
:10101C0023F0E06343F00073536002B0704700BFED
:10102C00001002400000014007B50D4B02689A42C7
:10103C0012D103F564439A69192042F400629A6153
:10104C0000229B69114603F400630193019BFFF797
:10105C00D1F81920FFF702F903B05DF804FB00BFCB
:10106C00002C01407047FEE7FEE7FEE7FEE7704705
:10107C0070477047FFF79AB80148FFF743BD00BFB0
:10108C00400000200F4B1A6842F001021A605968A8
:10109C000D4A0A405A601A6822F0847222F4803297
:1010AC001A601A6822F480221A605A6822F4FE022E
:1010BC005A604FF41F029A604FF00062034B9A6023
:1010CC00704700BF001002400000FFF800ED00E088
:1010DC00002103E00B4B5B58435004310A480B4B87
:1010EC0042189A42F6D30A4A02E0002342F8043B23
:1010FC00084B9A42F9D3FFF7C5FF00F00FF8FFF742
:10110C00F1FE7047C0110008000000200C00002008
:10111C000C00002080000020FEE7000070B50025C8
:10112C000C4E0D4CA41BA410A54209D100F022F8C2
:10113C0000250A4E0A4CA41BA410A54205D170BD73
:10114C0056F8253098470135EEE756F82530984784
:10115C000135F2E7B8110008B8110008B811000801
:10116C00BC11000803460244934200D1704703F8B7
:10117C00011BF9E7F8B500BFF8BC08BC9E467047E8
:0C118C00F8B500BFF8BC08BC9E467047D8
:1011980002030405060708090A0B0C0D0E0F1010B0
:1011A800000000000000000001020304060708090F
:0411B80031010008F9
:0411BC000D01000819
:0C11C000010000001000000000A24A0422
:04000005080010DD02
:00000001FF
