:020000040800F2
:1000000000500020491600087515000877150008F3
:10001000791500087B1500087D1500080000000018
:100020000000000000000000000000007F15000834
:1000300081150008000000008315000885150008E0
:1000400091160008911600089116000891160008F4
:1000500091160008911600089116000891160008E4
:1000600091160008911600089116000891160008D4
:1000700091160008911600089116000891160008C4
:1000800091160008911600089116000891160008B4
:1000900091160008911600089116000891160008A4
:1000A000911600088915000891160008911600089D
:1000B0009116000891160008911600089116000884
:1000C0009116000891160008911600089116000874
:1000D0009116000891160008911600089116000864
:1000E0009116000891160008911600080000000003
:1000F0000000000000000000000000000000000000
:0C01000000000000000000005FF808F1A3
:10010C0010B5054C237833B9044B13B10448AFF345
:10011C0000800123237010BD70000020000000003F
:10012C000025000808B5034B1BB103490348AFF386
:10013C00008008BD000000007400002000250008AD
:10014C0038B50E4B054618784FF47A73B3FBF0F3C1
:10015C000B4A1068B0FBF3F000F08CF8044658B969
:10016C000F2D09D8024629464FF0FF3000F042F817
:10017C00044B20461D6038BD012038BD0000002016
:10018C000800002004000020074A08B5136803206B
:10019C0043F01003136000F01BF80020FFF7D0FFB2
:1001AC0001F066F9002008BD00200240034A044B10
:1001BC0011681B780B441360704700BFAC00002023
:1001CC0000000020014B1868704700BFAC000020F5
:1001DC00074A0002D36800F4E06023F4E0631B04D8
:1001EC001B0C43F0BF6343F400330343D3607047ED
:1001FC0000ED00E0174B30B5DC68C4F30224C4F109
:10020C000703251D042B28BF0423062D4FF00105E1
:10021C0098BF002405FA03F303F1FF3388BF033CB6
:10022C001940A14005FA04F4013C2240002842EA9E
:10023C0001024FEA0212AFBF00F16040064B00F022
:10024C000F00D2B2A5BFD2B200F561401A5480F8AB
:10025C00002330BD00ED00E014ED00E00123420965
:10026C0000F01F0003FA00F0014B43F82200704726
:10027C0000E100E00138B0F1807F0AD2F021064B9A
:10028C00064A586082F823100020072298601A60F2
:10029C0070470120704700BF10E000E000ED00E067
:1002AC002DE9F74F00221646654BDFF8A4E1DFF885
:1002BC00A4C14FF001080C6808FA06F808EA040417
:1002CC00A0457FD14D68122D00F0AF8000F28880E0
:1002DC00022D00F0A7807CD8002D00F08E80012D1F
:1002EC0000F09E804FF00F09FF2C93BF824606F161
:1002FC008045083DD0F800B092BFB500D0F804B0EE
:10030C00AD0009FA05F82BEA080802FA05F588BFD2
:10031C0000F1040A48EA0505CAF80050D1F804A017
:10032C001AF0805F4ED0474D464FAD6926F003085A
:10033C0045F00105BD61BD6908F1804805F0010576
:10034C00019508F5803806F0030B019D4FEA8B0BE5
:10035C00D8F8085009FA0BF925EA09093A4DA842D0
:10036C0068D005F58065A84266D005F58065A84281
:10037C0064D005F58065A8420CBF0325042505FA59
:10038C000BF545EA0905C8F808501D681AF4803FBA
:10039C0014BF2543A5431D605D681AF4003F14BFCC
:1003AC002543A5435D609D681AF4801F14BF254347
:1003BC00A5439D60DD681AF4001F14BF2C4325EA89
:1003CC000404DC600136102E7FF473AF03B0BDE87B
:1003DC00F08F032D22D0112D84D1CA68043281E70D
:1003EC001A4FBD4209D012D8DFF86C904D4504D09D
:1003FC0009F580394D457FF475AF8A68C2B1012A81
:10040C000CBFC0F81080C0F8148008226AE775454C
:10041C00F3D06545F1D0DFF84490EBE7002261E7BB
:10042C00CA685FE7CA6808325CE7CA680C3259E7E9
:10043C00042257E70025A2E70125A0E702259EE745
:10044C00000401400010024000080140000021108F
:10045C0000003110000032100000111000002210BA
:10046C008368194214BF0120002070470AB1016152
:10047C0070470904FBE7000003682DE9F341DB0733
:10048C00054610D42B689F075ED42B68190700F122
:10049C0095802B685A0700F1BF80EA69002A40F06A
:1004AC002D81002014E0904C636803F00C03042BA6
:1004BC0007D0636803F00C03082B0CD16368DE03D0
:1004CC0009D523689C03DDD56B68002BDAD101209C
:1004DC0002B0BDE8F0816B68B3F5803F10D12368A2
:1004EC0043F480332360FFF76DFE064623689803C0
:1004FC00C8D4FFF767FE801B6428F7D90320E7E711
:10050C009BB9236823F480332360236823F480236E
:10051C002360FFF757FE064623689903B2D5FFF711
:10052C0051FE801B6428F7D9E8E7B3F5A02F2368A8
:10053C0003D143F480232360D1E723F48033236079
:10054C00236823F48023CDE7674C636813F00C0F0A
:10055C0007D0636803F00C03082B10D16368DA032F
:10056C000DD423689B0702D52B69012BAFD12368CF
:10057C006A6923F0F80343EAC203236085E72A691A
:10058C005A4B6AB101221A60FFF71CFE064623681B
:10059C009F07ECD4FFF716FE801B0228F7D9ADE7B6
:1005AC001A60FFF70FFE0646236898077FF56DAFBC
:1005BC00FFF708FE801B0228F6D99FE7AA694A4C70
:1005CC004B4BDAB101221A60FFF7FCFD0646636A59
:1005DC009B070DD54FF4FA52464B1B68B3FBF2F355
:1005EC00019300BF019B5A1E0192002BF9D150E7D9
:1005FC00FFF7E8FD801B0228E9D97FE71A60FFF7B7
:10060C00E1FD0646636A9F077FF543AFFFF7DAFD0E
:10061C00801B0228F6D971E7334CE369D80024D447
:10062C000127E36943F08053E361E36903F08053EE
:10063C000093009B304E3368D90518D5EB68012B1D
:10064C0026D1236A43F001032362FFF7BBFD41F27D
:10065C0088368046236A9B073FD5002F3FF41DAF99
:10066C00E36923F08053E36117E70027E2E733687F
:10067C0043F480733360FFF7A5FD80463368DA05D9
:10068C00DCD4FFF79FFDA0EB08006428F6D935E712
:10069C00ABB9236A41F2883823F001032362236A41
:1006AC0023F004032362FFF78DFD0646236A9807A7
:1006BC00D3D5FFF787FD801B4045F7D91EE7052BE7
:1006CC00236A03D143F004032362BAE723F0010346
:1006DC002362236A23F00403B6E7FFF773FDA0EB54
:1006EC000800B042B6D909E70010024000004242AF
:1006FC00800442420800002000700040224C6368D5
:10070C0003F00C03082B3FF4E2AE00231F4E022A29
:10071C0033602BD1FFF756FD0746236899011FD490
:10072C002B6AB3F5803F05D16268A96822F40032C8
:10073C000A436260696A62680B4322F474121343C1
:10074C00636001233360FFF73DFD054623689A0182
:10075C003FF5A7AEFFF736FD401B0228F6D9CDE6D4
:10076C00FFF730FDC01B0228D7D9C7E6FFF72AFDDB
:10077C00054623689B017FF594AEFFF723FD401BD4
:10078C000228F6D9BAE600BF0010024060004242CF
:10079C0030B5194B87B002AC03F11005224618682E
:1007AC005968083303C2AB421446F7D101238DF8C4
:1007BC000430022311498DF805304B6803F00C020C
:1007CC00082A17D1C3F3834206A80244DB0312F8AC
:1007DC00102C0CD54B680A48C3F34043504306AA6F
:1007EC00134413F8143CB0FBF3F007B030BD0548CC
:1007FC005043FAE70248F8E71825000800100240B9
:10080C0000127A0000093D00544A2DE9F0411368AA
:10081C00054603F007038B420E462AD329688C0742
:10082C0034D4CA0747D44D4A136803F007039E42D9
:10083C00C0F082802A684A4C12F0040F40F0878086
:10084C00130706D563682A6923F4605343EAC2038D
:10085C006360FFF79DFF6368424AC3F30313D35CE5
:10086C00D840414B18600020FFF76AFC0020BDE81F
:10087C00F081136823F007030B431360136803F034
:10088C0007039942CAD00120BDE8F081344B11F026
:10089C00040F1EBF5A6842F4E0625A60080742BF58
:1008AC005A6842F460525A605A68A86822F0F00202
:1008BC0002435A60B5E76A68294C012A23681CD1A7
:1008CC0013F4003FDFD0636841F2883823F0030350
:1008DC0013436360FFF776FC6B680746012B14D15A
:1008EC00636803F00C03042B9DD0FFF76BFCC01B5B
:1008FC004045F5D90320BDE8F081022A02D113F05E
:10090C00007FDFE713F0020FDCE7022B0FD16368E7
:10091C0003F00C03082B86D0FFF754FCC01B40459A
:10092C00F5D9E7E7FFF74EFCC01B4045E2D86368FA
:10093C0013F00C0FF6D176E7136823F0070333435B
:10094C001360136803F007039E429CD172E763683F
:10095C00E96823F4E0630B43636071E70020024015
:10096C00001002403425000808000020044B054A02
:10097C005B68C3F30223D35C034A1068D84070470A
:10098C00001002404425000808000020044B054AD2
:10099C005B68C3F3C223D35C034A1068D84070472A
:1009AC0000100240442500080800002003680020C5
:1009BC00DA6842F00102DA601A6842F001021A6049
:1009CC00704790F83C3070B5012B4FF002031CD0EF
:1009DC00012280F83D30036880F83C209A6822F4AC
:1009EC007F4222F077029A600A68402A79D019D89F
:1009FC00102A00F093800AD8002A00F08980012385
:100A0C0080F83D30002380F83C30184670BD202A19
:100A1C0000F08A80302AF2D19A6822F0700242F0FB
:100A2C00370236E0702A36D01BD8502A42D0602AC2
:100A3C00E5D11C6A4D6824F01004CE681C629969DB
:100A4C001A6A21F4704122F0A00242EA051241EA2E
:100A5C00063199611A629A6822F0700242F06702BC
:100A6C0017E0B2F5805F11D0B2F5005FC7D18A688C
:100A7C004D689C68C9682A4324F47F4442EA0122E9
:100A8C0022439A609A6842F4804202E09A6822F00B
:100A9C0007029A60B3E78A684D689C68C9682A4364
:100AAC0024F47F4442EA012222439A609A6842F07D
:100ABC007702EEE74C68CE68196A1D6A21F00A01CC
:100ACC0025F001051D629A69214322F0F00242EAE9
:100ADC0006129A6119629A6822F0700242F057026B
:100AEC00D7E74C68CE68196A1D6A21F00A0125F017
:100AFC0001051D629A69214322F0F00242EA0612B6
:100B0C009A6119629A6822F0700242F04702C0E7BB
:100B1C009A6822F0700242F00702BAE79A6822F053
:100B2C00700242F01702B4E79A6822F0700242F0A9
:100B3C002702AEE77047704770477047036810B5DF
:100B4C001A69044691070ED5DA6892070BD56FF037
:100B5C0002021A6101229B6902779B0777D0FFF78B
:100B6C00EAFF0023237723681A69500710D5DA6847
:100B7C0051070DD56FF004021A6102229B6922778E
:100B8C0013F4407F204668D0FFF7D5FF002323776E
:100B9C0023681A6912070FD5DA6810070CD56FF0A5
:100BAC0008021A610422DB692277990720465AD081
:100BBC00FFF7C1FF0023237723681A69D20610D5EB
:100BCC00DA68D0060DD56FF010021A610822DB69C5
:100BDC00227713F4407F20464BD0FFF7ACFF002365
:100BEC00237723681A69D10708D5DA68D20705D5A7
:100BFC006FF0010220461A6100F022FB23681A698B
:100C0C00100608D5DA68110605D56FF0800220466B
:100C1C001A6100F0AAF823681A69520608D5DA6836
:100C2C00500605D56FF0400220461A61FFF785FF8C
:100C3C0023681A69910622D5DA6892061FD56FF0DF
:100C4C0020022046BDE810401A6100F08DB8FFF775
:100C5C0071FF2046FFF770FF83E7FFF76BFF20461D
:100C6C00FFF76AFF92E7FFF765FF2046FFF764FF87
:100C7C00A0E7FFF75FFF2046FFF75EFFAFE710BD71
:100C8C001A4A036890420AD0B0F1804F07D0A2F5FF
:100C9C009432904203D002F58062904215D14A689A
:100CAC0023F070031343114A90420AD0B0F1804FE5
:100CBC0007D0A2F59432904203D002F580629042A4
:100CCC0003D1CA6823F4407313434A6923F08003A9
:100CDC00134303608B68C3620B688362034B9842B7
:100CEC0004BF0B690363012343617047002C01406F
:100CFC0010B50446A0B190F83D3003F0FF021BB9CB
:100D0C0080F83C2000F0D6FB0223206884F83D30AC
:100D1C00211DFFF7B5FF0123002084F83D3010BDE5
:100D2C00012010BD90F83C3010B5012B4FF00203A0
:100D3C0018D080F83D3003680C685A68496822F076
:100D4C0070025A605A6822435A609A6822F08002F4
:100D5C009A609A680A439A60012380F83D30002318
:100D6C0080F83C30184610BD704770472DE9F047AD
:100D7C000568C2682B69016923F4405313432B6146
:100D8C008368EA680B43416922F4B05222F00C02EA
:100D9C000B431343EB606B69826923F44073134379
:100DAC006B61404B81469D424FF0190446D1FFF7D1
:100DBC00EDFD04FB00F3D9F804604FF06408B600B5
:100DCC00B3FBF6F3B3FBF8F31E01FFF7DFFD604353
:100DDC00D9F804309B00B0FBF3F7FFF7D7FD604365
:100DEC00D9F804309B00B0FBF3F3B3FBF8F308FB2A
:100DFC0013731B013233B3FBF8F303F0F007FFF767
:100E0C00C5FD6043D9F804209200B0FBF2FAFFF75D
:100E1C00BDFD6043D9F804309B00B0FBF3F3B3FB8A
:100E2C00F8F308FB13A31B013233B3FBF8F303F005
:100E3C000F033B433344AB60BDE8F087FFF796FDEF
:100E4C0004FB00F3D9F804604FF06408B600B3FB60
:100E5C00F6F3B3FBF8F31E01FFF788FD6043D9F8F6
:100E6C0004309B00B0FBF3F7FFF780FD6043D9F82B
:100E7C0004309B00B0FBF3F3B3FBF8F308FB1373E4
:100E8C001B013233B3FBF8F303F0F007FFF76EFDF1
:100E9C006043D9F804209200B0FBF2FAFFF766FD2C
:100EAC00B7E700BF00380140F8B504460E461746B8
:100EBC001D4621680B6836EA030301D10020F8BDFA
:100ECC006B1CF7D095B923680320DA6822F4D07232
:100EDC00DA605A6922F001025A61202384F8393011
:100EEC0084F83A30002384F83830F8BDFFF76AF9FB
:100EFC00C01B8542DDD2E6E710B5044640B390F83E
:100F0C00393003F0FF021BB980F8382000F0F0FAFA
:100F1C002423226884F83930D368204623F4005304
:100F2C00D360FFF723FF236800201A6922F4904254
:100F3C001A615A6922F02A025A61DA6842F40052A4
:100F4C00DA602023E06384F8393084F83A3010BD3D
:100F5C00012010BD2DE9F0411F4690F839300446B0
:100F6C00202B0D4690464ED1002949D0002A47D05F
:100F7C0090F83830012B46D0012380F8383000230C
:100F8C00C363212380F83930FFF71CF90646A4F817
:100F9C002480A4F82680E38C9BB26BB93B46324686
:100FAC0040212046FFF780FFA8B9202384F83800A1
:100FBC0084F83930BDE8F081E38C3246013B9BB2BA
:100FCC00E384A3688021B3F5805F20463B460ED1B5
:100FDC00FFF76AFF10B10320BDE8F0812B8822686F
:100FEC00C3F308035360236943B90235D3E7FFF712
:100FFC005BFF0028EFD123682A785A600135CAE7D5
:10100C000120BDE8F0810220BDE8F08110B5094A4D
:10101C001378092B0DD801331370074A074C11783C
:10102C004B1CDBB2092B137088BF0023605488BFA4
:10103C00137010BD98000020960000208C0000203A
:10104C0010B54FF480510F48FFF70AFA042100281D
:10105C000D4814BF00248024FFF702FA08B944F0AD
:10106C00400410210948FFF7FBF908B944F00204C9
:10107C0020210648FFF7F4F908B944F00104204692
:10108C0010BD00BF001001400014014000080140D9
:10109C0008B5FFF7D5FF10F0030018BF012008BDFD
:1010AC00012810B504460BD002D3022816D010BD6F
:1010BC0001224FF480410A48FFF7D8F9002206E0DC
:1010CC0000224FF480410648FFF7D0F92246BDE8D4
:1010DC0010404FF400410248FFF7C8B90022E8E77E
:1010EC000010014010B500242046FFF7D9FFFFF790
:1010FC00CFFF20B90134E4B2012CF5D00224FFF764
:10110C009FFF10F0800F0CBF00230423410648BF43
:10111C000833C20709D410F0020F0CBF02200120C3
:10112C0003EB44042044C0B210BD0020F8E70000DB
:10113C00024B1878003018BF01207047980000202F
:10114C00084A137863B1013B1370074A07491378B7
:10115C00C85C0133DBB2092B88BF002313707047C6
:10116C00FF20704798000020970000208C00002082
:10117C0008B50220FFF794FF0122054B1A700023DB
:10118C00044A1370044A1370044A137008BD00BF5C
:10119C009B00002098000020960000209700002063
:1011AC0010B5244C2378013B032B14D8DFE803F053
:1011BC000207192FFFF76CFF68B102230AE0FFF753
:1011CC0067FF48B1FFF78EFFFFF720FF0A221A4B8B
:1011DC001A700323237010BD0220FFF761FF012357
:1011EC00F8E7FFF755FF0028E7D0134A1378002BD8
:1011FC00F1D0013BDBB21370002BECD1FFF772FF87
:10120C00FFF704FF02220D4B1A700423E2E7FFF7ED
:10121C003FFF0028D1D0094C2378002BDBD0013BB9
:10122C002370054B1B78002BD5D1FFF75BFFFFF725
:10123C00EDFEC2E79B0000209A00002099000020E0
:10124C00074B1A6801321A6064221968B1FBF2F379
:10125C0002FB131313B90122024B1A60704700BF33
:10126C00B00000209C00002010B514464FF0FF3356
:10127C0092B20248FFF76EFE204610BDB40000206B
:10128C0000B591B02822002106A800F027FA1422FC
:10129C00002101A800F022FA0223069301230A93ED
:1012AC00102306A80B93FFF7E7F800210F2301A8E2
:1012BC0001930291039104910591FFF7A5FA11B0E6
:1012CC005DF804FBF0B58BB0FEF75EFFFFF7D8FFBF
:1012DC001022002106A800F001FA5A4B4FF44041AD
:1012EC009A69594842F010029A619A69002402F0F6
:1012FC0010020092009A9A69022542F004029A6147
:10130C009A69012702F004020192019A9A694FF43A
:10131C00805642F020029A619A6902F020020292F1
:10132C00029A9A6942F008029A619B69002203F0C2
:10133C0008030393039BFFF799F8002240214348CD
:10134C00FFF794F84FF4404306A93F4806930995DC
:10135C0007970894FEF7A4FF302306A93C48069390
:10136C0007940894FEF79CFF06A937480696079445
:10137C000894FEF795FF042306A9364806930794B4
:10138C000894FEF78DFF402306A930480693099573
:10139C0007970894FEF784FF2146102206A800F058
:1013AC009DF907232C4D2D4A284685E80C0040F268
:1013BC00E733EB6080230494AB610594AC602C6143
:1013CC006C61FFF795FC06A928460696FFF7F9FA1B
:1013DC0004A9284604940594FFF7A4FC4FF4E133C8
:1013EC001F482049846080E80A000C23C4604361D4
:1013FC0004618461C461FFF77FFD2846FFF7D6FACC
:10140C00FFF7B6FE184E2B68DA6822F00102DA609C
:10141C003268012A06D1DA68346042F00102DA60DF
:10142C00FFF7BEFE2A68D36843F00103D360FFF7D1
:10143C007FFE0028E7D0FFF783FE01460B4800F043
:10144C0055F9E0E70010024000100140000C01408B
:10145C000008014000140140F4000020002C014061
:10146C00B4000020003801409C0000202825000812
:10147C000E4B82B09A6942F001029A619A6902F0AD
:10148C0001020092009ADA6942F08052DA61DB695B
:10149C00074A03F080530193019B536823F0E063E8
:1014AC0043F00073536002B0704700BF001002405D
:1014BC000000014007B50D4B02689A4212D103F5AA
:1014CC0064439A69192042F400629A6100229B6974
:1014DC00114603F400630193019BFEF78BFE192068
:1014EC00FEF7BCFE03B05DF804FB00BF002C01400E
:1014FC0010B5044686B01022002102A800F0EEF8C8
:10150C002268174B9A4228D103F558439A6902A9CD
:10151C0042F480429A619A69124802F48042009225
:10152C00009A9A6942F004029A619B6903F00403E1
:10153C000193019B4FF40073029302230393032343
:10154C000593FEF7ADFE4FF480630293002302A9CE
:10155C00044803930493FEF7A3FE06B010BD00BF2E
:10156C0000380140000801407047FEE7FEE7FEE747
:10157C00FEE7704770477047FEF718BE0148FFF74B
:10158C00DDBA00BFF400002070B50E4615460C46BF
:10159C00A31B9D4201DC284670BDAFF3008004F80C
:1015AC00010BF5E708B50A4B0246196809B9094958
:1015BC0019606946186802448A4206D900F064F83A
:1015CC000C2303604FF0FF3008BD1A6008BD00BF4C
:1015DC00A0000020380100204FF0FF3070474FF47E
:1015EC00005300204B60704701207047002070476B
:1015FC000F4B1A6842F001021A6059680D4A0A40F2
:10160C005A601A6822F0847222F480321A601A68C6
:10161C0022F480221A605A6822F4FE025A604FF4B7
:10162C001F029A604FF00062034B9A60704700BF34
:10163C00001002400000FFF800ED00E0002103E084
:10164C000B4B5B58435004310A480B4B42189A42DF
:10165C00F6D30A4A02E0002342F8043B084B9A42B4
:10166C00F9D3FFF7C5FF00F015F8FFF72BFE704715
:10167C00EC25000800000020700000207000002005
:10168C0038010020FEE70000014B1868704700BFCE
:10169C000C00002070B500250C4E0D4CA41BA410A2
:1016AC00A54209D100F026FF00250A4E0A4CA41BC6
:1016BC00A410A54205D170BD56F8253098470135C8
:1016CC00EEE756F8253098470135F2E7E425000897
:1016DC00E4250008E4250008E82500080346024438
:1016EC00934200D1704703F8011BF9E70FB40A4B82
:1016FC0013B51C6824B1A36913B9204600F04EF849
:10170C0005AB049AA1682046019300F057F902B08A
:10171C00BDE8104004B070470C000020014900F0F7
:10172C00A9B800BFA1220008002310B5044603602D
:10173C004360836081814366C2810361436183613D
:10174C00194608225C30FFF7C9FF054B246263621F
:10175C00044BA362044BE362044B236310BD00BF34
:10176C00451F0008671F00089F1F0008C31F0008C3
:10177C0070B568254A1E55430E4605F1740100F0FC
:10178C0097F8044640B1002180E842000C30A0607C
:10179C0005F16802FFF7A2FF204670BD836910B502
:1017AC00044633BB8364C3640365124B124A1B6843
:1017BC008262984204BF0123836100F01FF86060CD
:1017CC00204600F01BF8A060204600F017F800221D
:1017DC00E06004216068FFF7A7FF01220921A068DF
:1017EC00FFF7A2FF02221221E068FFF79DFF012301
:1017FC00A36110BD4C25000829170008F8B51C4B37
:10180C0007461E68B36913B93046FFF7C7FF483661
:10181C00B4687368013B03D5336833B13668F7E7B6
:10182C00B4F90C506DB16834F4E704213846FFF775
:10183C009FFF30600028F1D10C2304463B6020460A
:10184C00F8BD4FF6FF73E38101236566A381256024
:10185C00A560656025616561A5610822294604F1D2
:10186C005C00FFF73BFF6563A563A564E564E6E7F1
:10187C004C2500082DE9F84380468946002600F1E6
:10188C00480414B93046BDE8F883A5686768013F81
:10189C0001D52468F5E7AB89012B07D9B5F90E30D2
:1018AC00013303D029464046C84706436835EEE766
:1018BC0070B5CD1C25F0030508350C2D38BF0C2553
:1018CC00002D064601DBA94203D90C23336000200E
:1018DC0070BD00F08DFD234A1468214691B9224C4D
:1018EC0023681BB9304600F017FB206029463046B0
:1018FC0000F012FB431C26D10C233046336000F061
:10190C0078FDE4E70B685B1B1AD40B2B0FD90B602B
:10191C00CC18CD50304600F06CFD04F10B00231DAB
:10192C0020F00700C31A1BD05A42E25070BD8C4203
:10193C000BBF63684B681360636018BF0C46E9E724
:10194C000C464968CAE7C41C24F00304A04205D025
:10195C00211A304600F0E0FA0130CDD02560D9E7ED
:10196C0070BD00BFA4000020A8000020936810B434
:10197C00013B002B936008DA9469A34202DBCBB2E3
:10198C000A2B02D110BC00F01BBB1368581C106052
:10199C001970C8B210BC7047F8B506460F4614460D
:1019AC00D518AC4201D1002007E03A4614F8011BCF
:1019BC003046FFF7DBFF431CF3D1F8BD2DE9F04FA8
:1019CC009DB00C4617460393064618B183690BB9B4
:1019DC00FFF7E4FE7C4B9C4257D17468A38918072F
:1019EC005DD52369002B5AD00023099320238DF851
:1019FC00293030234FF0010B8DF82A30B84645467C
:101A0C0015F8013B002B55D1B8EB070A0BD0534608
:101A1C003A4621463046FFF7BFFF013000F0C48044
:101A2C00099B5344099398F80030002B00F0BC80BC
:101A3C0000234FF0FF3204930793059206938DF821
:101A4C0053301A9305222978604800F0C3FC05F145
:101A5C000108049B002831D1D90644BF20228DF8FF
:101A6C0053201A0744BF2B228DF853202A782A2A98
:101A7C002CD000210A20079AA84698F8003001358E
:101A8C00303B092B6DD971B326E0514B9C4201D1EF
:101A9C00B468A3E74F4B9C4208BFF4689EE721460D
:101AAC00304600F0F1FA00289ED04FF0FF301DB008
:101ABC00BDE8F08F252BA7D0A846A0E7434A4546A2
:101ACC00801A0BFA00F018430490BBE7039A111D1F
:101ADC0012680391002A01DB079204E0524243F0A2
:101AEC0002030792049398F800302E2B10D198F82B
:101AFC00013008F101012A2B37D1039B08F10208B0
:101B0C001A1D1B680392002BB8BF4FF0FF330593CF
:101B1C00314D032298F80010284600F05BFC40B1D0
:101B2C004023401B03FA00F0049B08F10108034317
:101B3C00049398F800100622284808F101078DF844
:101B4C00281000F047FC002834D0254B03BB039B26
:101B5C00073323F0070308330393099B4B44099382
:101B6C004CE700FB0232012186E700230A251846C8
:101B7C000593884698F800200131303A092A03D998
:101B8C00002BC5D00590C3E705FB00200123F0E72F
:101B9C0003AB00932246134B04A93046AFF30080ED
:101BAC00B0F1FF3F8146D8D1A3895B063FF57DAFED
:101BBC0009987CE703AB009322460A4B04A93046F4
:101BCC0000F08AF8ECE700BF70250008B02500088B
:101BDC009025000850250008B6250008BA250008F5
:101BEC0000000000A51900082DE9F04791461F469A
:101BFC008A680B6906469342B8BF1346C9F8003091
:101C0C0091F843200C46DDF8208012B10133C9F85D
:101C1C0000302368990642BFD9F800300233C9F866
:101C2C000030256815F0060507D104F1190AE368A0
:101C3C00D9F800209B1A9D422ADB94F84330226885
:101C4C00003318BF012392062FD404F14302394606
:101C5C003046C047013022D02368E56803F0060304
:101C6C00042B18BF0025D9F800204FF0000908BF3D
:101C7C00AD1AA368226908BF25EAE5759342C4BF73
:101C8C009B1AED181A344D451BD10020BDE8F08786
:101C9C000123524639463046C047013003D14FF03C
:101CAC00FF30BDE8F0870135C1E73020E11881F83D
:101CBC0043005A1C94F845102244023382F8431016
:101CCC00C3E70123224639463046C0470130E6D0EF
:101CDC0009F10109D7E700002DE9F04317460A7E08
:101CEC0085B06E2A984606460C460C9B01F1430EB5
:101CFC0000F0BC801AD8632A2ED00AD8002A00F033
:101D0C00C880582A00F08A8004F1420584F84220E9
:101D1C002AE0642A01D0692AF6D121681A6811F0E8
:101D2C00800F23D0111D1960136827E0732A00F06F
:101D3C00B48008D86F2A2AD0702AE5D10A6842F0FC
:101D4C0020020A6003E0752A21D0782ADCD178229F
:101D5C006F4984F8452064E01A6801F14205111DB1
:101D6C001960136884F842300123A3E011F0400F8E
:101D7C0002F104011960D7D0B2F90030002B03DA5C
:101D8C002D225B4284F8432062490A2217E0206826
:101D9C00196810F0800F03D0081D18600B6806E05E
:101DAC0010F0400F01F104001860F7D00B886F2A77
:101DBC0014BF0A2208225749002084F843006568A2
:101DCC00002DA560C0F29C80206820F004002060EB
:101DDC00002B3FD1002D40F095807546082A0BD181
:101DEC002368DA0708D5236962689A42DEBF30237C
:101DFC0005F8013C05F1FF35AEEB05032361CDF889
:101E0C0000803B4603AA21463046FFF7EDFE013029
:101E1C0055D14FF0FF3005B0BDE8F08381F8452077
:101E2C003C492268186812F0800F00F104051D600F
:101E3C0001D0036802E05506FBD50388D00744BFE8
:101E4C0042F0200222601BB9226822F0200222609C
:101E5C001022B1E77546B3FBF2F002FB1033CB5CFA
:101E6C0005F8013D03460028F5D1B7E708681A6864
:101E7C0010F0800F496904D0101D186013681960A8
:101E8C0007E010F0400F02F1040018601368F6D060
:101E9C001980002375462361B1E71A68111D19607A
:101EAC00156800216268284600F094FA08B1401BBE
:101EBC00606063682361002384F843309FE72369E3
:101ECC002A4639463046C0470130A2D023689B07CA
:101EDC0007D5002504F11909E368039A9B1A9D4262
:101EEC0005DBE068039B9842B8BF184693E70123D3
:101EFC004A4639463046C04701308AD00135EBE7B7
:101F0C00002BA7D10B7804F1420584F8423065E729
:101F1C00D2250008C125000838B50023054C05461C
:101F2C0008462360FFF73EFB431C02D1236803B134
:101F3C002B6038BD3401002010B50C46B1F90E10E1
:101F4C0000F0A4FA0028ABBF636DA3891B1823F41F
:101F5C008053ACBF6365A38110BD2DE9F0411F46D2
:101F6C008B890546DB050C46164605D50223002257
:101F7C00B1F90E1000F0B8F9A389324623F480535E
:101F8C00A381B4F90E103B462846BDE8F04100F0A1
:101F9C0069B810B50C46B1F90E1000F0A5F9431C48
:101FAC00A38915BF606523F4805343F48053A38148
:101FBC0018BFA38110BDB1F90E1000F0D3B800000A
:101FCC00F8B50E461446054618B183690BB9FFF7F0
:101FDC00E5FB214B9C422AD16C68A369A360A389C1
:101FEC001A072ED5236963B323692068F6B2C01A89
:101FFC0063693746984204DB2146284600F04AF9CB
:10200C0028BBA3680130013BA36023685A1C2260E3
:10201C001E706369984204D0A389DB0719D50A2E78
:10202C0017D12146284600F035F990B10FE00B4B43
:10203C009C4201D1AC68D0E7094B9C4208BFEC68CC
:10204C00CBE72146284600F01FF80028CCD04FF0F3
:10205C00FF373846F8BD00BF7025000890250008F2
:10206C005025000838B50546084611460022054C97
:10207C0022601A46FFF7F8F8431C02D1236803B11B
:10208C002B6038BD34010020324B70B51D680646FC
:10209C000C4625B1AB6913B92846FFF77FFB2E4BD5
:1020AC009C420FD16C68B4F90C309AB215072CD441
:1020BC00D00611D40922326043F04003A3814FF0C3
:1020CC00FF3070BD254B9C4201D1AC68EBE7244B33
:1020DC009C4208BFEC68E6E7510712D5616B41B131
:1020EC0004F14403994202D0304600F083F90023F6
:1020FC006363A38923F02403A38100236360236912
:10210C002360A38943F00803A38123694BB9A389F6
:10211C0003F42073B3F5007F03D02146304600F062
:10212C0019F9A28912F001030CD00023A360636992
:10213C005B42A361236953B9B4F90C3013F08000EE
:10214C00BAD170BD920758BF6369A360F2E7002053
:10215C00F7E700BF0C000020702500089025000850
:10216C005025000838B50023054C05460846236069
:10217C00FFF732FA431C02D1236803B12B6038BD40
:10218C00340100208A892DE9F041054610070C46E0
:10219C005AD44B68002B05DC0B6C002B02DC0020A6
:1021AC00BDE8F081E66A002EF9D0002312F48052CB
:1021BC002F682B6033D0606DA3895A0705D56368EF
:1021CC00C01A636B0BB1236CC01A00230246E66A7B
:1021DC00216A2846B047431CA38906D129681D29CA
:1021EC004BD82B4ACA40D60747D5002262602269D9
:1021FC00D904226004D5421C01D12B6803B9606557
:10220C00616B2F600029CAD004F14403994202D0BB
:10221C00284600F0EFF800206063BDE8F081216AE9
:10222C0001232846B047411CC6D12B68002BC3D0D4
:10223C001D2B01D0162B01D12F60B0E7A38943F0E1
:10224C004003A381BDE8F0810F69002FA7D093074D
:10225C0018BF00230E6808BF4B69A6EB07080F6078
:10226C008B60B8F1000F9ADD43463A46216A284646
:10227C00A66AB047002807DCA38943F04003A3817A
:10228C004FF0FF30BDE8F0810744A8EB0008E8E709
:10229C000100402038B50B6905460C46DBB118B17E
:1022AC0083690BB9FFF77AFA0C4B9C4209D16C6825
:1022BC00B4F90C307BB121462846BDE83840FFF715
:1022CC0061BF074B9C4201D1AC68F1E7054B9C42C6
:1022DC0008BFEC68ECE7002038BD00BF7025000893
:1022EC00902500085025000838B5054608461146CB
:1022FC000022054C22601A46FFF778F9431C02D1E4
:10230C00236803B12B6038BD3401002070B50E4634
:10231C00B1F90E1090B0002914461D4607DA0023BF
:10232C002B60B3891A0610D44FF480630EE001AA17
:10233C0000F0BEF80028F2DB029A02F47042A2F51B
:10234C0000535A425A412A60EEE740230020236092
:10235C0010B070BD8B8973B59D0706460C4607D52A
:10236C0004F14703236023610123636102B070BD54
:10237C0001AB6A46FFF7CAFF009905463046FFF7E6
:10238C0097FA48B9B4F90C309A05EFD423F003034B
:10239C0043F00203A381E3E70D4BB362A3892060F2
:1023AC0043F08003A381009B20616361019B5BB1BF
:1023BC00B4F90E10304600F08DF828B1A38923F043
:1023CC00030343F00103A381A3891D43A581CDE73A
:1023DC002917000810B5C9B202449042034601D136
:1023EC00002010BD1C7801308C42F6D1184610BD6F
:1023FC007047704738B50546002943D051F8043C66
:10240C000C1F002BB8BFE418FFF7F2FF1E4A13682D
:10241C00104633B9636014602846BDE83840FFF7B6
:10242C00E8BFA3420BD921686218934201BF1A6816
:10243C005B685218226063600460EDE713465A68CB
:10244C000AB1A242FAD919685818A0420BD12068D7
:10245C000144581882421960DED110685268014458
:10246C0019605A60D8E702D90C232B60D4E7206896
:10247C0021188A4201BF11685268091821606260F4
:10248C005C60C9E738BD00BFA400002038B5054624
:10249C00084611460022054C22601A46FFF774F8D4
:1024AC00431C02D1236803B12B6038BD34010020DA
:1024BC0038B50023064C0546084611462360FFF745
:1024CC008EF8431C02D1236803B12B6038BD00BFCA
:1024DC003401002038B50023054C0546084623601E
:1024EC00FFF782F8431C02D1236803B12B6038BD7F
:1024FC0034010020F8B500BFF8BC08BC9E467047FC
:0C250C00F8B500BFF8BC08BC9E46704744
:1025180002030405060708090A0B0C0D0E0F10101C
:102528004B4559203A202564200D0A000000000080
:10253800000000000102030406070809000000006B
:102548000102030410000020000000000000000049
:102558000000000000000000000000000000000073
:102568000000000000000000000000000000000063
:102578000000000000000000000000000000000053
:102588000000000000000000000000000000000043
:102598000000000000000000000000000000000033
:1025A8000000000000000000232D302B2000686C84
:1025B8004C0065666745464700303132333435365E
:1025C8003738394142434445460030313233343597
:0C25D800363738396162636465660000C4
:0425E40031010008B9
:0425E8000D010008D9
:1025EC00010000001000000000A24A0410000020AE
:1025FC0000000000702500089025000850250008F8
:10260C0000000000000000000000000000000000BE
:10261C0000000000000000000000000000000000AE
:10262C00000000000000000000000000000000009E
:10263C00000000000000000000000000000000008E
:10264C00000000000000000000000000000000007E
:040000050800164990
:00000001FF
